{
    "contractName": "VotePT",
    "abi": [
        {
            "constant": true,
            "inputs": [
                {
                    "internalType": "address",
                    "name": "",
                    "type": "address"
                }
            ],
            "name": "electors",
            "outputs": [
                {
                    "internalType": "bool",
                    "name": "",
                    "type": "bool"
                }
            ],
            "payable": false,
            "stateMutability": "view",
            "type": "function"
        },
        {
            "constant": true,
            "inputs": [
                {
                    "internalType": "uint256",
                    "name": "",
                    "type": "uint256"
                }
            ],
            "name": "parties",
            "outputs": [
                {
                    "internalType": "uint256",
                    "name": "",
                    "type": "uint256"
                }
            ],
            "payable": false,
            "stateMutability": "view",
            "type": "function"
        },
        {
            "constant": true,
            "inputs": [],
            "name": "voteCount",
            "outputs": [
                {
                    "internalType": "uint256",
                    "name": "",
                    "type": "uint256"
                }
            ],
            "payable": false,
            "stateMutability": "view",
            "type": "function"
        },
        {
            "constant": true,
            "inputs": [
                {
                    "internalType": "uint256",
                    "name": "",
                    "type": "uint256"
                }
            ],
            "name": "voters",
            "outputs": [
                {
                    "internalType": "uint256",
                    "name": "count",
                    "type": "uint256"
                },
                {
                    "internalType": "string",
                    "name": "id",
                    "type": "string"
                },
                {
                    "internalType": "uint8",
                    "name": "party",
                    "type": "uint8"
                }
            ],
            "payable": false,
            "stateMutability": "view",
            "type": "function"
        },
        {
            "constant": false,
            "inputs": [
                {
                    "internalType": "string",
                    "name": "_id",
                    "type": "string"
                },
                {
                    "internalType": "uint8",
                    "name": "_party",
                    "type": "uint8"
                },
                {
                    "internalType": "address",
                    "name": "_voter",
                    "type": "address"
                }
            ],
            "name": "vote",
            "outputs": [],
            "payable": false,
            "stateMutability": "nonpayable",
            "type": "function"
        },
        {
            "constant": true,
            "inputs": [],
            "name": "getAllVotes",
            "outputs": [
                {
                    "internalType": "uint256",
                    "name": "",
                    "type": "uint256"
                }
            ],
            "payable": false,
            "stateMutability": "view",
            "type": "function"
        },
        {
            "constant": true,
            "inputs": [
                {
                    "internalType": "uint256",
                    "name": "_party",
                    "type": "uint256"
                }
            ],
            "name": "getVotesByParty",
            "outputs": [
                {
                    "internalType": "uint256",
                    "name": "",
                    "type": "uint256"
                }
            ],
            "payable": false,
            "stateMutability": "view",
            "type": "function"
        }
    ],
    "bytecode": "0x608060405234801561001057600080fd5b50610921806100206000396000f3fe608060405234801561001057600080fd5b506004361061007d5760003560e01c806370651a181161005b57806370651a1814610208578063851b6ef21461024a578063c638407114610268578063da58c7d9146102865761007d565b8063067efedf14610082578063159d1ddf146100de578063394dc569146101c6575b600080fd5b6100c46004803603602081101561009857600080fd5b81019080803573ffffffffffffffffffffffffffffffffffffffff169060200190929190505050610341565b604051808215151515815260200191505060405180910390f35b6101c4600480360360608110156100f457600080fd5b810190808035906020019064010000000081111561011157600080fd5b82018360208201111561012357600080fd5b8035906020019184600183028401116401000000008311171561014557600080fd5b91908080601f016020809104026020016040519081016040528093929190818152602001838380828437600081840152601f19601f820116905080830192505050505050509192919290803560ff169060200190929190803573ffffffffffffffffffffffffffffffffffffffff169060200190929190505050610361565b005b6101f2600480360360208110156101dc57600080fd5b81019080803590602001909291905050506106c2565b6040518082815260200191505060405180910390f35b6102346004803603602081101561021e57600080fd5b810190808035906020019092919050505061071b565b6040518082815260200191505060405180910390f35b61025261073c565b6040518082815260200191505060405180910390f35b610270610746565b6040518082815260200191505060405180910390f35b6102b26004803603602081101561029c57600080fd5b810190808035906020019092919050505061074c565b60405180848152602001806020018360ff1660ff168152602001828103825284818151815260200191508051906020019080838360005b838110156103045780820151818401526020810190506102e9565b50505050905090810190601f1680156103315780820380516001836020036101000a031916815260200191505b5094505050505060405180910390f35b60006020528060005260406000206000915054906101000a900460ff1681565b60088351146103d8576040517f08c379a000000000000000000000000000000000000000000000000000000000815260040180806020018281038252601f8152602001807f506c6561736520696e7365727420612076616c6964204944206e756d6265720081525060200191505060405180910390fd5b60008260ff16101580156103f05750600a8260ff1611155b610445576040517f08c379a000000000000000000000000000000000000000000000000000000000815260040180806020018281038252602c8152602001806108c1602c913960400191505060405180910390fd5b8073ffffffffffffffffffffffffffffffffffffffff163373ffffffffffffffffffffffffffffffffffffffff16146104e6576040517f08c379a00000000000000000000000000000000000000000000000000000000081526004018080602001828103825260128152602001807f4f6e6c79206f776e65722061646472657373000000000000000000000000000081525060200191505060405180910390fd5b6000803373ffffffffffffffffffffffffffffffffffffffff1673ffffffffffffffffffffffffffffffffffffffff16815260200190815260200160002060009054906101000a900460ff16156105a5576040517f08c379a00000000000000000000000000000000000000000000000000000000081526004018080602001828103825260168152602001807f596f75206861766520616c726561647920766f7465640000000000000000000081525060200191505060405180910390fd5b60026000815480929190600101919050555060016000803373ffffffffffffffffffffffffffffffffffffffff1673ffffffffffffffffffffffffffffffffffffffff16815260200190815260200160002060006101000a81548160ff021916908315150217905550604051806060016040528060025481526020018481526020018360ff1681525060016000600254815260200190815260200160002060008201518160000155602082015181600101908051906020019061066992919061081b565b5060408201518160020160006101000a81548160ff021916908360ff1602179055509050506003829080600181540180825580915050906001820390600052602060002001600090919260ff1690919091505550505050565b6000806000905060008090505b6003805490508110156107115783600382815481106106ea57fe5b906000526020600020015414156107045781806001019250505b80806001019150506106cf565b5080915050919050565b6003818154811061072857fe5b906000526020600020016000915090505481565b6000600254905090565b60025481565b6001602052806000526040600020600091509050806000015490806001018054600181600116156101000203166002900480601f0160208091040260200160405190810160405280929190818152602001828054600181600116156101000203166002900480156107fe5780601f106107d3576101008083540402835291602001916107fe565b820191906000526020600020905b8154815290600101906020018083116107e157829003601f168201915b5050505050908060020160009054906101000a900460ff16905083565b828054600181600116156101000203166002900490600052602060002090601f016020900481019282601f1061085c57805160ff191683800117855561088a565b8280016001018555821561088a579182015b8281111561088957825182559160200191906001019061086e565b5b509050610897919061089b565b5090565b6108bd91905b808211156108b95760008160009055506001016108a1565b5090565b9056fe506c6561736520696e736572742061206e756d626572206163636f7264696e6720746f20746865206c697374a265627a7a723158206da43b8db24cd7e4d183ba0ef7e79ea91c7191c0653abd15b95f9bf147d0c8b864736f6c63430005100032",
    "source": "// SPDX-License-Identifier: MIT//\r\npragma solidity >=0.5.0 <0.7.0;\r\n\r\ncontract VotePT {\r\n\r\n  struct Voter {\r\n      uint count;\r\n      string id;\r\n      uint8 party;\r\n  }\r\n\r\n  mapping(address => bool) public electors;\r\n  mapping(uint => Voter) public voters;\r\n  uint public voteCount;\r\n  uint[] public parties;\r\n\r\n  //Voters can either vote for a party or perform a blank vote\r\n  //There is a total of 10 parties + the blank vote\r\n  function vote(string memory _id, uint8 _party, address  _voter) public {\r\n      require(bytes(_id).length == 8, 'Please insert a valid ID number');\r\n      require(_party >= 0 && _party <= 10, \"Please insert a number according to the list\");\r\n      require(msg.sender == _voter, 'Only owner address');\r\n      require(!electors[msg.sender], \"You have already voted\"); //if true the person already voted\r\n      voteCount++;\r\n      electors[msg.sender] = true;\r\n      voters[voteCount] = Voter(voteCount, _id, _party);\r\n      parties.push(_party);\r\n  }\r\n\r\n  function getAllVotes() public view returns (uint) {\r\n      return voteCount;\r\n  }\r\n\r\n  function getVotesByParty (uint _party) public view returns (uint) {\r\n    uint count = 0;\r\n    for(uint i = 0; i < parties.length; i ++){\r\n        if (parties[i] == _party) {\r\n            count++;\r\n        }\r\n    }\r\n    return count;\r\n  }\r\n}",
    "sourcePath": "C:\\Users\\Marco Rodrigues\\Desktop\\VotePT\\contracts\\VotePT.sol",
    "compiler": {
        "name": "solc",
        "version": "0.5.16+commit.9c3226ce.Emscripten.clang"
    },
    "schemaVersion": "3.1.0",
    "updatedAt": "2020-06-01T12:42:01.140Z",
    "devdoc": {
        "methods": {}
    },
    "userdoc": {
        "methods": {}
    }
}